:10000000002000200D2E0000392E0000392E0000A7
:10001000392E0000392E0000392E0000392E000044
:10002000392E0000392E0000392E0000392E000034
:10003000392E0000392E0000392E0000490700003B
:10004000392E0000392E0000392E0000392E000014
:1000500059070000392E000071070000392E0000FA
:10006000392E0000392E0000392E0000392E0000F4
:10007000052B0000392E0000392E0000392E00001B
:10008000392E0000392E0000392E0000392E0000D4
:10009000392E000010B5064C2378002B07D1054BF4
:1000A000002B02D0044800E000BF0123237010BDE4
:1000B0009800002000000000F455000008B5084B2F
:1000C000002B03D00748084900E000BF0748036839
:1000D000002B00D108BD064B002BFBD09847F9E759
:1000E00000000000F45500009C000020900000205B
:1000F00000000000164B002B00D1144B9D464022FF
:1001000092029A1A924600218B460F461348144ACF
:10011000121A03F080FE0F4B002B00D098470E4BB5
:10012000002B00D098470020002104000D000D484E
:10013000002802D00C4800E000BF03F03DFE200084
:10014000290000F095F903F021FEC04600000800E8
:1001500000200020000000000000000098000020A7
:10016000440A0020000000000000000038B52023F1
:10017000041C0D1E01DA2D234D422370FA210023A9
:10018000281C6371890003F0A5F8081C642102F0A3
:10019000BBFF2E233030E37020710D49281C03F083
:1001A00099F8081CFA21890002F0AEFF3030A070E7
:1001B0000849281C03F08EF8081C054902F0A4FF2A
:1001C0003030C0B2302800D11038607038BDC04621
:1001D00010270000A0860100F0B595B0151C0F2275
:1001E000039104A952181370031F0C93031D041CE0
:1001F0000E9314236E223E4E0D93211C083B301C9F
:100200000F9201F026FE301C0CA901F0F4FE002331
:10021000384FB360EB0F7760059300D06D42A31E9B
:1002200004931093039BA61C12969D4200DD1D1C97
:100230004920039B5D1B191C684302F0D5FE602317
:100240002B4D1430119010A9281C139301F0D3FEEC
:10025000049B129610935F230026119310A9063376
:10026000281C139301F0C7FE211C6E220923281CB1
:1002700001F0EFFDAF60A71FA31D391C6022281CF1
:1002800006936E6001F049FE391C1722069B281C5C
:1002900001F043FE5C230834009317490122231C1C
:1002A0000196281C01F08BFF0421144A039B09A826
:1002B00003F0BAFD1323042200930196231C281C8B
:1002C00009A901F07CFF6B23059A0093B24203D089
:1002D0000196281C0A4905E00F21281C059B019363
:1002E00004ABC9180122049B01F069FF15B0F0BDF1
:1002F000B4000020FFFFFF00944600009646000077
:100300009A46000010B501F0ADFF002800D0FEE7CE
:1003100001F034FC002800D0FEE7074C201C01F05F
:1003200017FD002800D0FEE7044B60600449201C44
:10033000A36001F086FF10BDB4000020FFFFFF00A6
:10034000D04E000013B5084C201C01F0B0FC8023F7
:100350000021064A00930192201C0A1C01F060FD56
:1003600001F048FC13BDC046B40000209C460000CC
:10037000F0B589B0071C304C0392201C029101F0AB
:1003800096FC391C05A8FFF7F1FE05A803F080FDD7
:1003900003250026021C05A9062300950196201CB2
:1003A00001F00DFFFA21381C890002F0ADFE432355
:1003B000021C23211520FFF70FFF029905A8FFF764
:1003C000D5FE05A803F064FD05A9021C2F230095A6
:1003D0000196201C01F0F3FEFA210298890002F038
:1003E00003FE2523021C64213E20FFF7F5FE03983F
:1003F00003F0EAFA114A124B03F016F803F0AEFAD2
:10040000011C05A8FFF7B2FE05A803F041FD05A9F0
:10041000021C00950196201C572301F0D0FE0C21F0
:10042000039A56234A436620CA40FFF7D5FE01F0DF
:10043000E1FB09B0F0BDC046B40000206666666608
:100440006666084008B5034A034B10681B68984766
:1004500008BDC046E0000020EC0000200123024A55
:100460001370024A13707047010000200000002042
:10047000F0B591B0984B0AAA13CB13C213CB13C299
:10048000964BDB6C1B0E812B07D8954A954B1A6057
:10049000954A964B11680B4013609548012100F076
:1004A000EBFB022008210422012300F007FF0420B7
:1004B0000A21021C002300F001FF04200B2102226C
:1004C000012300F0FBFE04200C21021C002300F09D
:1004D000F5FE01200B210422002300F0EFFE002096
:1004E00000250124031C0121022200F0E7FE211C4B
:1004F000221C231C0194281C009500F0A3FE02205E
:10050000231C021C092100F0D9FE092100940A1CB9
:10051000019402202B1C00F095FE0222754B764FB1
:100520001A62FF32FF321A620B23BB6302AB1D73E8
:100530005D739D731F2302AA704ED3731574557497
:10054000291C092207A803F066FC211C6C4800F056
:1005500093FB301C05A900F049FA02AB5D75052339
:1005600002AA07A9301C1376947500F0EBF9654BCD
:10057000C0227363736952001C4310237461624C80
:10058000A350236000F026F9604800F07DFCFA21BA
:10059000890002F029FD5E4B01380397371C984211
:1005A0000CD85C4A5C495060C0200B6A00061B02F4
:1005B0001B0A03430B620723956013600320042189
:1005C0000622012300F07AFE0D21062201230420D9
:1005D00000F074FE00F046F900F056F9FFF792FEC5
:1005E00002F054F90AA802F025F84023236002F033
:1005F000A5FC4A4E0024301C02F026F9FA22009491
:10060000D200474B0121306802F08CF9FFF79AFEC7
:10061000012000F001FE01231E1C424A1370424BD0
:100620001B78002B3CD08024404B414AA4010A98FF
:10063000196814601022039CE2671C1C2268521A7D
:10064000092AFBD910213B4A0024D1671B689C462C
:100650006246364B1B689B1A374A934214D80022D5
:10066000364B1A7001327A601A78002A06D10425B6
:1006700029490A69AA430A6130BFF5E77B6AA342A8
:10068000E6D91E4B5C6AE3E780222D4B92011A608B
:10069000802105AA07AB02F09FFA0022224B1A70B4
:1006A000204B1A78002A06D0002207981A70059964
:1006B000221CFFF75DFE002E08D000230093174B8D
:1006C000012118681F4A164B02F02CF9012000F096
:1006D000A3FD0026A3E7C0469C4E0000B081E00FBA
:1006E0000500000418600C40E4800C40FFFFFFFE92
:1006F00000820400FC6000400060004000200040D8
:1007000000A204007C1F000000E100E05000020095
:10071000FFFFFF0010E000E000ED00E02C0A0020E9
:100720005D0400000100002000000020E80000201F
:10073000A060004004600040CF070000E4000020FB
:10074000A460004030750000024A13680133136052
:100750007047C046E8000020034B9A691A620122E4
:10076000024B1A707047C04600200040E400002091
:1007700010B5074B9C691C62A30502D5002002F04E
:10078000F9FBA30702D5002002F00CFC10BDC04607
:10079000FC6000401FB50C4B141C18600B4B03A8E9
:1007A000196002F051F8FA20211C800002F01CFCB4
:1007B0000024021C009403980121054B02F0B2F8BA
:1007C000201C04B010BDC046EC000020E00000205A
:1007D0004504000030B587B01048012100F04CFA04
:1007E0006A460F4B694631CB31C231CB31C20D4B1A
:1007F0000525029301230C4C0D73201C8B7300F014
:10080000BDFF80222368520213432360201C291C51
:1008100000F088FF0F23636507B030BD003204008D
:10082000B44E000040420F0000C00040F8B50D1C5F
:1008300080218027021C094C094E2368C9000B4304
:100840003F012360111CB763201C00F0C7FF201C70
:10085000291C00F0C3FF7763F8BDC04600C000400C
:100860000060004008B51F203821FFF7DFFF20207F
:100870004821FFF7DBFF23204421FFF7D7FF0C209F
:100880004021FFF7D3FF08BD08B506207F21FFF701
:10089000CDFF07201421FFF7C9FF08201421FFF71F
:1008A000C5FF09201421FFF7C1FF08BD70B5002A5C
:1008B00001D11E4C01E010221D4C1E4D466BA8427A
:1008C00033D106292AD8081C02F084FB04060F192C
:1008D00028282300184909E0174B19681B684900AC
:1008E000490E5B0209025B0E11E014490B680868AF
:1008F0007F210840FE21C9010B4003430FE00F494F
:100900000B6809685B005B0E49021B02490E0B4332
:1009100005E07F210A4B1B680B4000E00023934059
:100920001A1C331C234013436B6370BD8080FFFF90
:10093000FFFF808000200040B481E00FB881E00F0D
:10094000BC81E00F38B502230C1C4360897800227B
:10095000051CFFF7ABFF62782378217912051B078E
:10096000134309020B431A1CE3781B011343A279BA
:10097000002A02D0802252041343E279002A01D0D7
:10098000042213436279002A01D002221343227AFF
:10099000002A01D001221343A27812041343EB6012
:1009A00038BD000010B50E4B041C081C9C4205D835
:1009B0000C4B9C4203D8FA24E40100E01C1C0028E4
:1009C00002D1094800F060FA611E0818211C02F0EB
:1009D0000BFB031C5A1E9341C01AC0B210BDC04687
:1009E000405DC600FF7C00004081040070B50E79B8
:1009F000051C0C1C1548002E04D1311CFFF7D2FF3A
:100A0000061C07E00021FFF7CDFFFA200021C001FE
:100A1000FFF7C8FF0A23FE226B602178637809067E
:100A20001B011943A378D2031943E37830021B0456
:100A300013401943FE23DB01184063790143002B67
:100A400001D008231943296070BDC046405DC6002F
:100A5000E0228021174BD2005B69890013408B4252
:100A600018D006D8002B0CD08022520093421AD006
:100A700017E0C02189008B4205D0934211D10E4866
:100A800016E00E4814E00E4BDB6C1B0E122B0CD83C
:100A90000C480DE00A4BDB6C1B0E122B07D80A48E2
:100AA00006E0002004E0094802E0094800E00948A7
:100AB0007047C04600800C40406F4001809FD500C9
:100AC000B081E00F40420F00C0CF6A00C0D8A7003D
:100AD000804F120040B5640030B50E4B0E4ADC6BFF
:100AE000DA635D68191C0D4B0022984206D90C4B45
:100AF0000132984202D907232A1C1A4007204B686A
:100B0000834313434B60002C02D00022014BDA6375
:100B100030BDC04600000C40711B00000024F400F2
:100B20000048E80108B502F089F9FFF7D5FF08BDD4
:100B3000034B5A6DD20702D41A6D0242FCD17047A2
:100B400000800C4000B5031C0006000F0138062889
:100B500025D802F03FFA0424240A0D101900114B85
:100B60001868C003400F01301AE00E4B986807E088
:100B70000C4B586804E00C4A934210D1094B986E14
:100B80000F2318400E3B07E0084A934207D1054B5C
:100B9000186F03231840023B8340181C00E001201B
:100BA00000BDC04600800C406006100070071600B3
:100BB00010B503061B0F013B062B54D8021C181C52
:100BC0000C1C02F007FA0450500F1B2D3F00FFF7DA
:100BD000A9FF254A254B1068611E8903034019436C
:100BE000116018E0081C02F081FB1F221E49101A38
:100BF0008B68103A93431843886034E0FFF792FF04
:100C0000201C02F073FB1F221749101A4B68103A80
:100C100093431843486002F073F9FFF75DFF22E049
:100C2000134B9A421FD10420FFF782FF201C02F0D1
:100C30005DFB1F220C49101A8B6E103A9343184328
:100C4000886610E00B4B9A420DD14020FFF770FFF1
:100C5000201C02F04BFB1F220349101A0B6F1C3A99
:100C600093431843086710BD00800C40FF3FFEFF10
:100C7000600610007007160070B5041C0005000F18
:100C80000138092829D802F0A5F905081828280BE9
:100C90000E1128150020114D11E00020104D0EE01E
:100CA0000120104D0BE010200F4D08E080200F4D6B
:100CB000400004E000200E4D01E000200D4DE40353
:100CC0000E1CE40E002801D0FFF732FF0123A340E1
:100CD000A640296899433143296070BD08800C40C3
:100CE00044800C4058800C4060800C4064800C4074
:100CF00078800C4040800C4000B50F23184001382C
:100D0000062805D802F066F906203346046550002F
:100D100000205FE0304B0320DA6A304B1340802222
:100D20005201934256D003D880220130120107E0CD
:100D300080220220920193424CD080220930D204BA
:100D4000934247D0052045E00321234A936A0B4094
:100D5000181E02283ED006208B423BD0081C012BD7
:100D600038D0936A0238DB0334D50B3032E00C22E2
:100D7000194902208B6A1340082B2BD00430934270
:100D800028D00338042B25D08B6A0238DB0221D50A
:100D9000101C1FE0104B986A302303400320102BD7
:100DA00018D0203B181C10E00B4B8022D86AE0239F
:100DB000DB0203409202032093420BD080220730D3
:100DC000D202934206D0064A981843425841013055
:100DD00000E0072000BDC04600800C40003C00043D
:100DE0000000FFFF10B5041CFFF786FF224A944263
:100DF0000AD0224B9C420CD0214B9C4215D1214B56
:100E0000986A0323034011E01E4B9B6A1B079B0F4C
:100E10000CE01C4B9B6A9B069B0F022B11D0032BF3
:100E200012D00020012B25D108E0031C0020032B49
:100E300020D8181C02F0CEF80C02050802F071F858
:100E400018E002F075F815E002F05AF8400811E0D9
:100E50000B498C4202D0002094420BD1094B102246
:100E60009B6A8C4200D004320020D340834201D0E0
:100E700002F05AF810BDC04603001C0004001E001A
:100E800002001A0000800C4008B5F8239B031840AC
:100E9000E0231B0398424DD010D880239B02984238
:100EA0002ED002D800285ED060E08023DB0298427A
:100EB00021D0C0231B03984234D057E0D0235B03DA
:100EC000984220D00ED880235B0398421DD0B023D7
:100ED0005B0398424AD12648FFF784FF254B1A6FDF
:100EE000032318E0E0235B03984217D088239B0379
:100EF000984222D03AE001F0A5FF1E4B9A6809E023
:100F000001F0FEFF33E01C4809E01B48FFF76AFFD1
:100F1000184B9A6E0F231340D84028E01448FFF76F
:100F200061FF24E01548FFF7E7FE072802D00928F3
:100F30001CD118E0FFF78CFD19E01148FFF7DCFE2B
:100F40000238082812D802F045F8050811111111CD
:100F5000110E0B0001F0ECFF09E001F0E2FF06E0EA
:100F6000084B186803E001F06DFF00E0002008BDA9
:100F700003001C0000800C4002001A0006000C0058
:100F8000073322000400002030B505282ED802F0D7
:100F900021F80F0B031B071508200423032416E078
:100FA00020201023052412E08020402307240EE097
:100FB0008020802380005B00092408E080208023BB
:100FC0000001DB00162402E0012302201C1C084D56
:100FD00000290AD02B62002A08D00123A3401C1C40
:100FE000044B1B682342FBD000E0286230BDC046A2
:100FF00000800C402C800C4038B50F231840051C95
:101000000138062800D9ACE00C1C01F0E3FF0429EC
:101010002965AAAA8100881E092800D9A1E001F04B
:10102000D9FF1005080AA0A0A0A0A00D012003244C
:1010300009E0022003E00320012404E00520041C51
:1010400001E00020042401210A1CFFF79DFFFFF7A7
:1010500069FD444B5C6201F053FFFFF73DFD80E00A
:10106000481E0B287DD801F0B5FF2109117C7C19A1
:101070007C7C7C7C7C060123002219E0012100207D
:101080000A1CFFF781FF0023022211E00120021C4D
:10109000011CFFF779FF0023012209E00423324AF3
:1010A00011680B4313600023032201E000231A1C84
:1010B0002C49022D07D18C6A2C481B042040024386
:1010C0001A438A624DE092001B05886A1343284A3E
:1010D000024013438B6244E0022905D0032909D062
:1010E00001293ED100240BE0012100200A1CFFF75A
:1010F0004BFF05E00120011C021CFFF745FF012406
:101100003022184B2401986A904304439C6228E0E3
:1011100003290FD00A2919D0022922D10121002048
:101120000A1CFFF731FF40220E4B5A62DA6AD203E3
:10113000FCD516E00120021C011CFFF725FF6022F0
:10114000084B5A62DA6A9203FCD50AE001210520B5
:101150000A1CFFF719FF8022024B5A62DA6A520317
:10116000FCD538BD00800C4040800C40FCFFFEFFE9
:10117000F3FFEFFFEFF3108072B67047002800D145
:1011800062B6704708B5054B1120DA6A044B1A6045
:10119000FFF7B2FD034B187008BDC04600800C403D
:1011A000F4000020F0000020F8B5002802D1FFF77D
:1011B000E9FF26E0012824D1AA22124C124B134D3C
:1011C000E66FE367296852000640104380220B1C3B
:1011D00092030840134001D08023DB000C4F0343EF
:1011E0003B620C4B1978052902D01120FFF704FF50
:1011F0002B68DB0701D402233B62002E01D00023C1
:10120000E367F8BD08800C400E580000F400002091
:1012100000800C40F000002010B5041E01D0FFF744
:10122000B1FF0421064A13690B43136130BF002C40
:1012300003D00120FFF7B8FF01E001F061FE10BD0F
:1012400000ED00E0F7B508A90D7809A901930C7825
:10125000072A02D89100134E03E0111C124E0839E0
:10126000890007238B408840376894409F43384368
:10127000306001209040019BC14393409540221C67
:101280000A4E37680F403B433360094E33680B40CA
:101290001D43084B35601862074B186801400A432C
:1012A0001A60F7BD00610040046100400861004021
:1012B0000C610040FC60004010610040F0B5002A65
:1012C0000CD0012524248D404443002B03D0194E1B
:1012D000A419256102E0184EA41965602424444332
:1012E000144D641907290AD80F278D00AF4066688E
:1012F000BE43171CAF403D1C354365600AE00F2715
:101300000E4EA5688E19B600B740BD43171CB740F6
:101310003D43A560002A0CD1012424328C40424375
:10132000002B03D0034BD218146102E0024BD218F9
:101330005460F0BD0060004010600040F8FFFF3FC7
:1013400070B5041C151C081C1E1C002A1DD0226828
:101350000E4B1A402260226813403202134323606E
:10136000002902D10A48FFF78FFD2368094BA90025
:10137000401A995D694301F037FE236801389B07E5
:1013800002D5002800D10130206170BDFFFCFFFFB5
:1013900040810400CC4E000070B5002302220126DB
:1013A00043630B4B0D1C03630368041C93431A1C1B
:1013B0004B787340B340134303600B7BAA684968C2
:1013C000FFF7BEFF23682A78B3431343236070BD41
:1013D000CFFF0100F0B58849FC22884200D009E126
:1013E000864B9E685C881A791F78C0208D6AC00081
:1013F00005420BD05C801A71AA0501D5FD2202E0DE
:101400006A0501D5FE225A700922E6E0082F00D9AC
:10141000DEE0381C01F0DEFD051B425C744E96AA2E
:10142000D2001A715C8074883288E00604D50620E8
:10143000120A0240EA3004E0FE200240A00701D573
:1014400001200243012018704A624860C6E08020F3
:10145000054200D079E040273D4201D101207EE0E5
:101460000F636548778884460225F80606D56046EE
:101470001A7132785C801D704262AFE02F4273D0E7
:101480005C8007241A71D2001C70B6183289012AB8
:1014900000D0A3E06046121942609FE08020054220
:1014A00053D1402702203D4259D00F637588054231
:1014B0005AD00BE0D00030180589A5423AD8042054
:1014C00074880132D2B2204029D0002403278CE74F
:1014D0001A715C8074883288E00605D50620120AED
:1014E0000240EA30024301E0FE20024004200442B0
:1014F00001D0012422431870012048604A626DE047
:101500008020054221D1402704203D4227D00F638F
:101510007588054228D01A715C8007225DE001259C
:101520002C4002D058801A7138E0012A00D85CE7BC
:101530005C80F8E71A714268601C125D58804A624C
:1015400006224AE08020054205D01A71FF225C8005
:1015500008635A7022E04020054204D13A381870DE
:101560005C801A713AE0086305273EE707205C803B
:1015700018701A71A80631D5D200B6183089A2B2F7
:10158000CD69824203D27468561C5E80A5545A8885
:10159000824208D3012801D108224A6008221A7029
:1015A000063A4A601AE004244C60012816D001383B
:1015B000824213D10820104A50600FE01A71802235
:1015C0000820520018705C80154207D00A631BE7A0
:1015D0001A71FB225C805A70F23A1A701878012254
:1015E000092807D100224A6301215956012900D157
:1015F0005A705A7850B2F0BD00A00040F8000020A8
:1016000010B5184B984201D0FC2028E09A68D20708
:1016100001D520225A604A88900702D508890028FF
:10162000F2D0520702D50A8A002AEDD00020012408
:101630000D4A10711070547050809160C0225A6031
:101640009A6A920601D5074AD269FC21074AC90065
:101650001A635A6B03480A435A63FFF7BBFE40B252
:1016600010BDC04600A00040F8000020CFFF0100E0
:10167000002804D0012805D1034BD86803E0024BB1
:10168000986800E00020704700000840002803D060
:10169000012803D1024B00E0024B19607047C0469D
:1016A0000C000840080008400121034A13688B43DE
:1016B000184310607047C04600000840034B0028E4
:1016C00002D001221A6200E0186270470000084050
:1016D00042780378002A01D0022213438278002A3C
:1016E00001D004221343014A1360704700000840F0
:1016F00008B50020FFF7D8FF0120FFF7D5FF08BD90
:1017000038B5041C151C081E02D10548FFF7BCFBA8
:101710006900013801F068FC0002606138BDC04614
:101720004081040005238B435B00C360C1607047A8
:101730000D4B0E4AC3600023036042600C4A836075
:101740004361C36482640B4A4365904202D00A49F4
:10175000884200D103658365904202D0064B9842CF
:1017600001D10023C3657047AA0E000005100000D8
:10177000F91F000000C0004000C4004038B50D1C37
:10178000041CFFF7D5FF01222B8A21681343AA7B93
:101790000B43501E82419202134323602B7D22682B
:1017A000591E8B415B0713432360AB7C002B03D096
:1017B0001022EB7C1343A36580222B7B5201134341
:1017C0006360201C6968AA68FFF79AFF6B7B002B97
:1017D00001D01023E3602B78E36038BD03695B061A
:1017E000FCD5416303699B06FCD5C069C0B2704754
:1017F00003695B06FCD54163704703695B06FCD552
:10180000C1637047044B1A780123002A02D0034BAE
:1018100003600023181C70474001002034010020A1
:10182000F0B5061C0C4804780120002C13D00B4C9A
:10183000B51827880330BD420DDC6788CD18BD423E
:1018400009DC0130002A06D0002B04D00020A6803D
:10185000E18022816381F0BD40010020340100203D
:10186000F0B587B01F1C5A4B061C1B780292012052
:10187000002B00D1AAE0574B1A68002A00D1A5E03E
:10188000554C638920895B1A434303209B1B9F426D
:1018900000D99BE05148437C002B00D095E0806844
:1018A000C0080390E0880193091889B20491049854
:1018B000039941435218191C0092002F00D182E075
:1018C000454B1C89A41BBC4200D93C1C9888434B47
:1018D0003F1B1B7C0D1C012B5CD807233618B6B2AE
:1018E0001E4203D1194201D19C4233D8A3199C4610
:1018F0000D1C731A5B199BB263454BD20298EA1018
:10190000825C072028400241101C01221040334A0B
:10191000147CDA08002C02D1002804D10EE0012C3E
:101920000CD100280AD100988218072003400638FD
:101930009840031C10780343137009E00098821844
:101940000720034006389840031C10789843107015
:101950000135CEE7009BF6089B190593029BE6082C
:10196000C91059180598321C02F04CFAF300E41A19
:10197000ED18002C0ED0059B02989E190123A34060
:10198000E9103278415C013BDBB29A430B401343D0
:1019900033702D19019B049A114899181F224B117D
:1019A0000A40012191400A1C9B00195800260A4355
:1019B0001A50039A019B944601330193009B291C02
:1019C0006344009379E7381C00E00A2007B0F0BDBB
:1019D0004001002004010020340100200801002003
:1019E000300A0020F0B587B00593514B1A780123D7
:1019F000002A00D199E04F4A1268002A00D194E0F1
:101A00004D4C637C002B00D08EE0A468E408039466
:101A10004A4CE4880293091989B20491049C039901
:101A2000614357180D9B002B00D17EE0434B0D9A6C
:101A30001D892D1A954200D9151C0D9A521B0D9225
:101A40009C883D4B1B7C012B59D8059E7242564108
:101A50007642F6B2012B01D1F643F6B20419A4B2D4
:101A6000072D20D82D19002E0ED0AC4247D20723C7
:101A70000121234099400B1CE208BA181178013467
:101A80000B431370A4B2F0E7AC4238D20721012215
:101A900021408A40111CE308FB181A7801348A435C
:101AA0001A70A4B2F0E707222240E4083C19002A89
:101AB0000CD001239340301C2178013BDBB219404C
:101AC00098430143083A2170AD180134EB080193A3
:101AD0000BD0201C1A1C311C02F09DF9019BDB006D
:101AE000ED1A019BE418002D09D00123AB401D1C09
:101AF0002378013DEDB2AB432E401E432670029B7E
:101B0000049A0F4899181F224B110A400121914055
:101B10000A1C9B0019580A431A50029B00200133EB
:101B20000293039BFF187DE70A23181C07B0F0BD42
:101B300040010020040100200801002034010020A1
:101B4000300A002070B50A4B0A4D9E695968DA6860
:101B5000041C181C2B1CB0472B680B20002B06D034
:101B600023600548FF21102202F055F9002070BDC6
:101B70000801002004010020300A0020F7B50020F1
:101B8000184E337883422BD100F06CFB002827D10C
:101B9000154D291C00F07CFB002821D1134F381C67
:101BA000FFF7D0FF041E1BD13B680B30002B17D072
:101BB000EB68696898B2031C0D4A8FB2508050815F
:101BC00017809480D480178101227B433270201CBF
:101BD00001930094211C221C231CFFF703FF201CEF
:101BE000FEBDC04640010020080100200401002085
:101BF00034010020F0B585B000200126071C224BDF
:101C00009C68224BE4081D68C31903931E4B039A7A
:101C1000D9688A421FD201222A4001D0013011E046
:101C200000280ED0211C79438C461949096801907F
:101C300000971F6A181C61445B68B847002820D1D0
:101C4000039F0137C3196D08DB06DDD10F4BB200CE
:101C5000D5580136D8E7002806D10C4800211022BB
:101C600002F0D9F800200CE07C43094A1168019089
:101C700000970919181C1C6A00225B68A0470028FD
:101C8000EBD005B0F0BDC04608010020300A0020AE
:101C90000401002008B5031C0520002B06D00020FD
:101CA0001B68011C1A885B88FFF7BAFD08BD37B5B1
:101CB0000521002814D0041C4568FFF7EBFF011E26
:101CC0000ED124682A0C2B0AEDB200956589208973
:101CD000D2B26843DBB20190081CFFF783FE011CFF
:101CE000081C3EBD08B5031C0520002B0BD09889AD
:101CF000198A5A699B6901320133121A5B1A92B22E
:101D00009BB2FFF78DFD08BDF8B5031C0520002B25
:101D10001DD000291BD00E688C680138A64216DA47
:101D20004D68CA68954212DA0138002E0FDB002D8B
:101D30000DDB19680F88A74209DD4988914206DD4D
:101D4000181CDE601D615C619A61FFF7CBFFF8BD76
:101D500030B587B0052500281DD0002343600F4B08
:101D6000041C836001A8FFF74DFD051E13D1019BE4
:101D700002901A880390013A236004925B88201C29
:101D8000013B02A90593FFF7BFFF051E03D1201CED
:101D9000034900F056FA281C07B030BDFFFFFF00D2
:101DA0000052000010B5040C0C70010A117018707C
:101DB00010BDF7B50525041C0F1C161C002812D0F9
:101DC0000C3000F0F7F8043D00280CD0A468B8B23D
:101DD000220C230AE4B20195B1B2D2B2DBB2009474
:101DE000FFF700FE051C281CFEBDF7B505250F1CDE
:101DF000161C1C1C002811D00C3000F0DBF8043D30
:101E000000280BD0220C230AE4B20195B8B2B1B27B
:101E1000D2B2DBB20094FFF7E5FD051C281CFEBD25
:101E200038B5041C1D1C88B291B29AB2049B9BB2B7
:101E3000FFF7F6FC011E0AD1049B059A6B43FFF7DE
:101E40000FFD011E03D1201CFFF74CFF011C081CD5
:101E500038BDF0B589B0052500285BD00F1C1C1CCF
:101E6000C91AFB180392029000F057F8051E012DC5
:101E700050D8012500262B1B01938543A64245DA45
:101E8000019B002B01DA730002E0013C331B5B0075
:101E9000019A0133D3180193BB1B0793F3190693DF
:101EA000039B02981A190799069B00F036F801283F
:101EB0002FD843424341ED183B1B04933B19059334
:101EC000039B0298F2180499059B00F026F801285C
:101ED0001FD843424341ED18039B02981A1B0799F0
:101EE000069B00F01AF8012813D843424341ED182D
:101EF000039B02989A1B0499059B00F00EF8012899
:101F000007D8434243410136ED18B7E768424541DF
:101F100000E0051C281C09B0F0BDF0B587B0052411
:101F2000051E44D00069043C824240DBA86982421D
:101F30003DDC994202DD081C191C031C6869012460
:101F4000814234DCEE68B34231DBB14200DA311C4D
:101F5000834200DD031C5B1A013303936B4688B296
:101F600091B29A890123FFF75BFC041E1FD10D2754
:101F70000E2602ABF618FF180F23321C029602AE93
:101F8000A868391C9B19FFF70DFF02A9C97B029BAA
:101F90003A781B7800910399201C0191211CFFF7CE
:101FA00021FD041E03D1281CFFF79CFE041C201CED
:101FB00007B0F0BD10B5031E0FD01C680020A14271
:101FC0000BDB9C68A14208DC59688A4205DBD968B2
:101FD000D00FCB1791425841C0B210BD0368826840
:101FE000934201DD026083604368C268934201DD71
:101FF0004260C3607047F0B58BB006AD2B1C041C6B
:1020000045C945C30A68281C1A60FFF7E7FFE36863
:10201000069A9A4200DA06936369AA689A4200DD3A
:10202000AB6023696A689A4200DA6B60A369EA6868
:102030009A4200DDEB600D270E260F2502ABFF183C
:10204000F618ED18A068391C321C2B1CFFF7AAFEED
:10205000069A089B07999B1A01330293099B90B239
:102060005B1A013303936B4689B21A899B89FFF788
:10207000D7FB011E10D128783A783378029D009062
:10208000039868430190081CFFF7ACFC011E03D1C4
:10209000201CFFF727FE011C081C0BB0F0BDF0B59B
:1020A00087B0041C0CA8007805900520002C00D1F6
:1020B00083E00E1C203EF5B203385E2D7DD8201C37
:1020C00028300078B6B2022807D10A263A2904D06F
:1020D0000136202901D030398EB2218C0220B14244
:1020E0006BDD00270493E369039202930097A31D1D
:1020F000DB7F009A93425ED9E31CDB7F012B05D086
:10210000022B06D1029A73009B5A06E0029B9B5D4C
:1021100003E0029AB3009B589BB200250193631D14
:10212000DB7FAB4227D9019BDB0708D5039B009AD5
:102130005919049B201C9A18FFF73BFE0BE0059BE6
:10214000002B0DD0039B009A5919049B201C9A1850
:102150006368FFF74AFE01282FD843424341FF1826
:10216000019B01355B080193ADB2D8E7059B002BBD
:1021700009D10135ADB2631DDA7F0333DB7FD3189C
:102180009D42F3DB0EE0039B009A5919049B201C2F
:102190009A186368FFF729FE01280ED8434243418D
:1021A000FF18E6E7231DD97F009B761801339BB209
:1021B000B6B200939BE77842784107B0F0BDF0B526
:1021C00087B003930CAB40CB051C1B78052005930F
:1021D000002D34D0002932D02B1C28331B78033833
:1021E000002B2CD08B18049300230C1C039F02930C
:1021F000049B9C4220D021780A2907D1AB1DDB7FAC
:10220000039FF618EB1DDB7FF61813E0059B281CD7
:1022100000933A1C331CFFF742FF01280FD84342BA
:102220004341029AD31802936B1DDA7F0333DB7F9D
:10223000D318FF180134DBE702984342584107B036
:10224000F0BD08B5052300280AD01C301022002953
:1022500003D101F0E0FD052302E001F0D3FD0023EE
:10226000181C08BD10B5084B1C78002C01D00020AC
:1022700009E001221A70054BE358002BF7D098476C
:1022800004340028F7D010BD74010020080000209D
:1022900008B50A4A031C1278002A0AD000280ADC72
:1022A0002C225343081C0649C91801F0ABFD00203D
:1022B00002E0044800E0044808BDC0467401002064
:1022C00048010020050011800200118008B50B4B69
:1022D0001B78002B0ED00A4A1368002B0CDC011C63
:1022E000581C10602C2253430648C01801F08AFD88
:1022F000002002E0044800E0044808BD740100200A
:1023000044010020480100200500118001001180D7
:1023100070B5802910D18026084C09492568120122
:102320003601AA18891900208A4202D91860054886
:1023300003E01D60226000E0034870BD1000002033
:1023400075010020010011800200118000487047D3
:102350000400118008B500F017F900F0D5F800204E
:1023600008BD70B500240E1C1D1C20013018AC42A5
:1023700005D00021102201F04EFD0134F5E70020C8
:1023800070BDF7B500200F1C0A2100F029F90620C6
:1023900000F0FFF8089B01225D1C6B46ADB29E1D4C
:1023A0002B021343301C02213380002400F0CCF8B0
:1023B000099B200138189C4215D0102100F0C4F868
:1023C000099B013B9C4202D101235B4204E0FF22B6
:1023D0006B1C1B191B021343301C02213380013478
:1023E00000F0B2F8E4E7022000F0D3F80A21002060
:1023F00000F004F90020FEBD08B50321052000F01F
:102400000BF9002008BD08B5002904D008210020E0
:1024100000F0E6F803E0081C082100F0EFF80020C7
:1024200008BD000010B58CB000F0AEF800F06CF8FC
:1024300000F0BEF800220C21131C042000F0C2F8AA
:1024400000220A21131C042000F0BCF800200A21FD
:10245000021C031C00F0B6F800200821021C031C1B
:1024600000F0B0F800220321131C052000F0AAF8A8
:102470001D480021402200F091F8041E31D11B4B71
:1024800001A80193012303747F334360C360836019
:10249000174B44744361174B8361174BC361174B50
:1024A0000362174B4362174B8362FFF70FFF041E53
:1024B00017D1082100F094F80A21201C00F090F8B0
:1024C000062000F066F86B46981C04230221038066
:1024D00000F03AF8022000F05CF8201C0A2100F01D
:1024E0008DF8201C0CB010BDF92300003055000001
:1024F00007240000112300004D2300008323000067
:10250000632300005523000030B587B06A460A4BAC
:1025100023CB23C223CB23C2084D09480121FEF758
:10252000ABFB084B281C69460293FFF727F90A23E7
:1025300000206B6507B030BD4855000000C000406A
:1025400000320400E067350038B5041C0D1C002D76
:1025500011D0012D01D0E30706D521780948FFF7F6
:1025600047F9013D0134F2E721880648FFF745F9B4
:10257000023D0234EBE7034B1B699B06FBD50020B1
:1025800038BDC04600C0004008B500F053FB002035
:1025900008BD08B500F026FC002008BD08B5FEF710
:1025A000F9F8002800D0014808BDC0460200138099
:1025B00008B503480121FEF75FFB002008BDC046B7
:1025C0000082040010B5141E05D1C0B20422FEF72B
:1025D00075FE201C00E0014810BDC04601001380BC
:1025E00001238B40191C2423C0B25843024BC0184E
:1025F000016100207047C0460060004001238B400D
:10260000191C2423C0B25843024BC018416000205B
:102610007047C0461060004001238B40191C2423E2
:10262000C0B25843024BC018816100207047C046B9
:10263000006000407FB5041C01211F48FEF71CFB11
:102640001E4B22689A4235D11D480121FEF714FB2A
:10265000207961790A220123FEF730FEE179A07921
:102660000A220123FEF72AFE092125790122131CE3
:102670006079144E8340181C24236B439B19161C4D
:1026800018606079013986405E600029EED1237AB6
:10269000033120681B020B4383636B461A705A7028
:1026A0006A46236969460293E3680193237D1373A5
:1026B000FEF772FE7FBDC0464081040000A00040CE
:1026C00000B204001060004038B5051CFEF798FF0A
:1026D000054C40B2012806D1013C002C03D0281C37
:1026E000FEF778FEF5E738BDE1930400F7B5051C69
:1026F000254C0021237F61778B4240D0226863689C
:10270000009501918B4201D1AA4206D90098019906
:10271000121A8B412260636031E0E17F002901D110
:10272000217727E0A668E76800980199801A994107
:10273000321C3B1C00F0F8FDB61A9F41321C3B1CBA
:102740002169226063606669002906DD8E19666171
:10275000F32E0FD90120002106E0761A6661F32ED0
:1027600008D901204042C11712184B412260636012
:10277000F43E6661A369002B01D001236377034B0C
:1027800028349C42B5D1F7BD78090020180A0020F2
:1027900038B50425074C18346379002B04D0042085
:1027A000A168401B23689847013D2834002DF3D1D0
:1027B00038BDC0467809002070B50122524200247D
:1027C000131C1B4909190D7F002D08D00D6849689D
:1027D0008B4202D803D1AA4201D92A1C0B1C2834EF
:1027E000A02CEED10021134C2170511C01D1591C99
:1027F0001DD0002B02D1104B9A4200D90E4A0F4B2C
:102800000F491B78002B03D103021B0A0B6000E069
:10281000086002260B4D81180902AE61090A0020EA
:10282000FEF734FF01232370EB691E43EE6170BD98
:1028300078090020750900209BFFFF007709002020
:102840001C0A00200000084038B5051CFEF792FC69
:102850000022282353430A49CB189C7F002C04D024
:102860000132042AF5D1074C06E0002D03D00121E6
:1028700099772A6000E0044CFEF780FC201C38BDEC
:1028800078090020011000F0041000F038B51A4B50
:102890001C78002C2ED101251848291C1D70FEF72C
:1028A000EBF917480221FEF7A7FB16480821FEF7AF
:1028B0007FF9291C1348FEF7DFF91348FEF708FFDC
:1028C0000721124BDA698A43DA619961FEF710FF3A
:1028D0008022C0210E4B520149005A500D481A6007
:1028E000211CA02201F097FA0B4B1C700B4B1C70A3
:1028F0000B4B1C60002038BD76090020002302002D
:1029000002001A0060061000605500000000084038
:1029100000E100E078090020770900207509002017
:10292000180A0020F0B587B001900591151C1F1CF6
:10293000032800D9CEE02824FEF71CFC019B04905C
:102940005C43664B1C19A37F002B03D1FEF716FCDA
:102950006348C0E0002D06D1002F00D1B5E00198FA
:102960000C99B847B1E05F4EFA22736812010093E8
:102970000023690CE80380185941FA220023A7615B
:10298000520100F0D1FC059BA060E160012B09D150
:10299000FA239B005D43F42358437A3B281A2061B5
:1029A000636106E001225242D31780185941A060AA
:1029B000E1602823019901204B430021474AD318A5
:1029C0009C68DD6824184D41201C291C1860596042
:1029D0000120187768460C99007D1962D877424B20
:1029E000029403951B780592002B6ED13F4C23680F
:1029F000013302D02368013323603D4D2B78002B37
:102A00001CD1009B3B4A1B021B0A13600223B361CB
:102A1000039B0299002B02D1374B994200D93649CA
:102A2000009B002059180902090AFEF72FFE022216
:102A3000F3691343F36101232B7040E02368012BFA
:102A40003DD10027019A27335343059AD3181F77A6
:102A50000222F3699343F361264B1868009B181A0E
:102A60000002264B000AC3185A1E93415B421840CD
:102A7000FFF73CFEFFF78CFE002F06D12823019ABA
:102A80005343059AD31801221A770098FFF794FE52
:102A9000184D73682A6800939B1A1B021B0A0020BA
:102AA0000293FEF7E5FD2B680137C01A104B0002B8
:102AB0001B78000A002B02D0029B8342C8D82368EF
:102AC000002B02D02368013B23600498FEF756FBDD
:102AD000002000E00A4807B0F0BDC0467809002099
:102AE000031000F00000084077090020180A0020B9
:102AF000750900201C0A00209BFFFF00010000FF59
:102B0000021000F0F7B51E4CFEF734FBE2692369B2
:102B1000071C1340191C03229143A1619B072BD56D
:102B20000122184B65681A7001930222E369164E60
:102B30009343E3613368E81A0002000AFFF7D6FD09
:102B4000FFF726FE281CFFF737FE65683368002074
:102B5000EB1A1B021B0A0093FEF78AFD3368C01AAA
:102B60000A4B00021B78000A002B02D0009B834214
:102B7000DBD80023019A1370381CFEF7FFFAF7BD6B
:102B800000000840770900201C0A00207509002079
:102B900070B588B0151C03AA11800421518001A9C9
:102BA0000B7002240123049102AE13811482111CC4
:102BB0000696FFF789FD002802D000232B6008E06D
:102BC00003227378201C93431A1C33781B02D318FA
:102BD0002B6008B070BD0000F8B51C1CE523071C75
:102BE0000E1C151CFFF7D4FF022802D00120404222
:102BF00016E02A680B4B381C53430B4A5B0B9B189F
:102C00002B60311C221CE023FFF7C2FF0228EDD10C
:102C100000202268054B5343054A5B139B18236031
:102C2000F8BDC046093D000090E8FFFFCD5500000B
:102C3000FE48FFFFF0B58DB003220BA8614901F0FB
:102C4000E1F80022604C236C02925B0705D45F48D8
:102C50000121FEF711F8012302935D48FEF74CF8BD
:102C60004023E26A03211A40079059480192FEF777
:102C7000C3F95848FDF766FF802108904900554880
:102C8000FDF796FFA36D002201240392234204D195
:102C90005048211CFDF7F0FF0394FEF76BFA012664
:102CA0004D4C09902568354012D02368802104934B
:102CB000A3684A4A0593E368E56906930023236005
:102CC000E3610733A3617A334901FF33D15003E055
:102CD0002E1C06950595049500230BA88370FEF71E
:102CE000F7FC80223E4B52011A603D4A13685B009C
:102CF00013600CD061686268374B9142FBD0384951
:102D00005A6809680139FDD85B689342EDD0344BAD
:102D10001A6852081A6009221B68013A002A17D063
:102D20005B0815D02E480168194301606768616827
:102D30008F42FCD028494F68294908680138FDD8DE
:102D400025484068B842E8D0086898430860E4E73E
:102D50000998FEF713FA002E11D008991D48FDF7C7
:102D600027FF0120FEF7AAFC059B0020A360069B1D
:102D7000E360049B2360E561FEF7A0FC02E0301CE9
:102D8000FEF792FC039B002B03D012480021FDF7B5
:102D900073FF079B032B03D00D48191CFEF72CF97A
:102DA000019B002B04D10120191C1A1CFEF7ECF822
:102DB000029B002B03D005480021FDF75DFF0DB0FD
:102DC000F0BDC0466355000000800C4000230200A7
:102DD00002001A00600610000000084000E100E058
:102DE000140000200849031C002B0CD0013B882252
:102DF0001202003253430A68D80AD20A50438009AB
:102E000001D00138FDD870471400002006488047E3
:102E10000649074A074B9B1A03DD043BC858D050AC
:102E2000FBDCFDF767F90000212F000000560000D1
:102E30000000002094000020FEE7C04600487047D4
:102E400000366E0108B5244A244BD16A0B4080211C
:102E500049018B4235D005D8802109018B420ED122
:102E60001F4B0AE0802189018B4205D08021C904D3
:102E70008B4204D11B4828E01B4B186825E0E02357
:102E8000D168DB000B40802189008B4213D007D82A
:102E9000002B12D00139FF398B4210D1134814E0B6
:102EA000C02189008B4204D00131FF318B420BD00D
:102EB00005E00F4809E00F4807E00F4805E0002053
:102EC00003E08020000200E00C481168C903490FAC
:102ED000013100F089F808BD00800C40003C00047E
:102EE0001C00002000366E011800002040B5640070
:102EF000809FD500C0D8A700804F1200406F4001CE
:102F000008B5FFF79FFF044B5A680F231340D840C2
:102F1000024B186008BDC04600800C402000002015
:102F20007047802000027047FA2080007047000040
:102F3000014B18687047C0461800002008B50B48C0
:102F40000121FDF799FE0A480121FDF795FE0421B4
:102F500005200A1C0023FEF7B1F905200422011CFC
:102F60000023FEF7ABF9002008BDC04640810400F5
:102F70000082040001280DD8084AC000815C1018A6
:102F80000122436800209A4024234B4304495B18E4
:102F90005A6001E0012040427047C0466855000079
:102FA0001060004001280DD8084AC000815C10184C
:102FB0000122436800209A4024234B4304495B18B4
:102FC0001A6101E0012040427047C0466855000088
:102FD0000060004002B4714649084900095C49009C
:102FE0008E4402BC7047C046002243088B4274D313
:102FF00003098B425FD3030A8B4244D3030B8B42FA
:1030000028D3030C8B420DD3FF22090212BA030C02
:103010008B4202D31212090265D0030B8B4219D3E3
:1030200000E0090AC30B8B4201D3CB03C01A524103
:10303000830B8B4201D38B03C01A5241430B8B424B
:1030400001D34B03C01A5241030B8B4201D30B0334
:10305000C01A5241C30A8B4201D3CB02C01A52415B
:10306000830A8B4201D38B02C01A5241430A8B421E
:1030700001D34B02C01A5241030A8B4201D30B0207
:10308000C01A5241CDD2C3098B4201D3CB01C01A21
:10309000524183098B4201D38B01C01A524143092B
:1030A0008B4201D34B01C01A524103098B4201D319
:1030B0000B01C01A5241C3088B4201D3CB00C01A86
:1030C000524183088B4201D38B00C01A52414308FE
:1030D0008B4201D34B00C01A5241411A00D2014623
:1030E000524110467047FFE701B5002000F0FCF8A0
:1030F00002BDC0460029F7D003B5FFF775FF0EBC2F
:103100004243891A1847C04603460B437FD4002226
:1031100043088B4274D303098B425FD3030A8B426B
:1031200044D3030B8B4228D3030C8B420DD3FF22D5
:10313000090212BA030C8B4202D31212090265D0A3
:10314000030B8B4219D300E0090AC30B8B4201D356
:10315000CB03C01A5241830B8B4201D38B03C01A9D
:103160005241430B8B4201D34B03C01A5241030B14
:103170008B4201D30B03C01A5241C30A8B4201D3C5
:10318000CB02C01A5241830A8B4201D38B02C01A70
:103190005241430A8B4201D34B02C01A5241030AE7
:1031A0008B4201D30B02C01A5241CDD2C3098B42CC
:1031B00001D3CB01C01A524183098B4201D38B0149
:1031C000C01A524143098B4201D34B01C01A5241EC
:1031D00003098B4201D30B01C01A5241C3088B4231
:1031E00001D3CB00C01A524183088B4201D38B001C
:1031F000C01A524143088B4201D34B00C01A5241BE
:10320000411A00D201465241104670475DE0CA0F94
:1032100000D04942031000D34042534000229C4654
:1032200003098B422DD3030A8B4212D3FC2289015E
:1032300012BA030A8B420CD3890192118B4208D334
:10324000890192118B4204D389013AD0921100E096
:103250008909C3098B4201D3CB01C01A52418309AA
:103260008B4201D38B01C01A524143098B4201D3D7
:103270004B01C01A524103098B4201D30B01C01A02
:103280005241C3088B4201D3CB00C01A524183087C
:103290008B4201D38B00C01A5241D9D243088B42D2
:1032A00001D34B00C01A5241411A00D20146634675
:1032B00052415B10104601D34042002B00D54942D9
:1032C000704763465B1000D3404201B5002000F018
:1032D0000BF802BD0029F8D003B5FFF715FF0EBCAF
:1032E0004243891A1847C0467047C0461C21012333
:1032F0001B04984201D3000C10391B0A984201D3D9
:10330000000A08391B09984201D30009043902A2B6
:10331000105C40187047C04604030202010101011D
:103320000000000000000000002B11D1002A0FD186
:10333000002900D1002802D00021C943081C07B48D
:10334000024802A14018029003BDC0469DFFFFFF46
:1033500003B4684601B5029800F04CF8019B9E4604
:1033600002B00CBC7047C046F0B54F464646050457
:103370002D0C2C1CC0B41704160C3F0C9946030CE2
:103380007C4375435F4373437D19260CAD199C46FE
:10339000AF4203D980235B029846C4444B46514355
:1033A000434324042E0C240C2D0466442C19591874
:1033B0008919201C0CBC90469946F0BDF0B583B02D
:1033C000161C1F1C0090019100F030FB041C0D1C0A
:1033D000221C2B1C301C391CFFF7C6FF009A019BD6
:1033E000121A8B410899201C0A604B60291C03B0FB
:1033F000F0BDC046F0B5141C83B01D1C00900191B7
:1034000000F00CFC221C2B1C061C0F1CFFF7ACFF51
:10341000009A019B121A8B410899301C0A604B607C
:10342000391C03B0F0BDC046F0B55F4656464D4668
:103430004446F0B4051C061C080387B099464F00AB
:10344000030BCC0F92469B467F0D019467D06C4BCB
:103450009F4236D080205B4640031843C0006B0F6C
:103460001843684B83469C4600239846EE00674409
:1034700000934B4649461D03C90F5B0052462D0B76
:103480005B0D894600D16EE05D498B4264D080209F
:103490005C4940038C4600210543ED00500F054375
:1034A000D20063444846FF187B1C9A46009B60404C
:1034B00002900B430F2B00D9ACE053489B00C3583C
:1034C0009F465B461D4300D082E008230093002303
:1034D0009B46023300269846CBE7029B0193434666
:1034E000022B59D1012400250026019B1C40444B8E
:1034F00000212D030A0D12052D0B1543434A1B0510
:1035000015401D436D00E4076D082543301C291C40
:1035100007B03CBC90469946A246AB46F0BD2B4353
:103520004ED05B46002B00D185E15846FFF7DEFE0A
:10353000021C2823291C9B1A161C5846D940083EF9
:10354000B0400B1CB54003439B462E1C0023304F5C
:103550000093BF1A98468CE7514629432ED1002587
:10356000002202219EE75146294323D0002D00D19D
:1035700054E1281CFFF7BAFE031C28215046C91A43
:103580001A1CC8405146083A914095400A1C054310
:103590001F480021C31A85E7032B00D1C2E1012B8C
:1035A00000D06DE14446019B00251C40E4B200239D
:1035B00000269DE700250022012173E7032171E722
:1035C0000423009300239B4601330026984650E7CE
:1035D0000C230093093B98464BE7802500242D03DC
:1035E0000026074B84E74B46AB46161C01938846E2
:1035F00075E7029BAB46161C019388466FE7C046F1
:10360000FF07000001FCFFFF78550000FFFF0F805F
:103610000DFCFFFF330C3604360C9C46331C140C97
:103620001204120C5343984663465343994663462B
:1036300063430193331C41466343090C4B445B18BD
:10364000994505D98020400281460199494401915C
:10365000190C039141460904090C1B045B180493DF
:103660002B0C9846331C2D04290C4B4360460093C9
:103670004346654658435E43009B4D431B0C9946A9
:10368000AE194E448446B54203D980235B02994665
:10369000CC44350C2B1C0398634484460593009B53
:1036A00036041B041B0CF3189C44604603905846D8
:1036B0000504060C280C84465043351C81466046A0
:1036C000654344434846000C8346724314195C44E6
:1036D000A24203D98022520293465D44220CAD18C7
:1036E0004A461204120C24044046A41862464A4377
:1036F0007143464360460096464670438046100C30
:1037000084468844E044414505D9802149028C46DD
:10371000009961440091019803998446614499425B
:103720009B415B4299460598434684461204120C1D
:103730001B049B1863449C46AB4683429B41404616
:103740000A19CC44A2428941E344CC45B6415C46C7
:10375000000C8046494276425B42641833439844E9
:103760008C428941AB459B4149425B4219430D1C48
:10377000009B4544EE187602E50D2E43B346049BAC
:1037800056021E43731E9E415B46D20D32436602B3
:103790001643DB010AD50123334076081E435B46FE
:1037A000DB071E435B465B089B465746634BFB1893
:1037B000002B5ADD720709D00F223240042A05D0AF
:1037C000321DB242B6417642B344161C5A46D2016B
:1037D00006D55A465A4B1A4080239346DB00FB1805
:1037E000584A934234DD0124029B00251C400026E8
:1037F000554B7DE680205B460003034208D005421E
:1038000006D105432D032D0B4C46161C4E4B6FE67F
:103810005D4605432D032D0B4B4B69E65046FFF7E4
:1038200065FD031C2033272B00DCA6E6554608382F
:1038300085400022ACE6281CFFF758FD021C203210
:10384000272A00DC75E6083885400026AB467DE671
:103850005A46F608520716435A4601245502029A60
:103860005B052D0B5B0D144042E6384DED1B382DEA
:103870000ADD0124029B00251C400026002337E6B8
:10388000019B5746029391E71F2D25DC304B321CDC
:103890009C466744BE405B46BB40371CEA407E1EE8
:1038A000B74113433B431E1C5B46EB401D1C730793
:1038B00009D00F233340042B05D0331DB342B6414A
:1038C0007642AD191E1C2B0220D50124029B002537
:1038D0001C40002601230BE65A461E4BDB1BDA4038
:1038E000131C202D1CD01C4A94465A466744BA40EB
:1038F000171C3E43721E96411E430723002533408A
:1039000007D00F2300253340042BD6D16B076D025F
:103910002D0B0124F6081E43029B1C400023E7E503
:103920000027E6E780255B4601242D031D43019B0C
:103930002D0323401C1C2D0B034BD9E5FF03000076
:10394000FFFFFFFEFE070000FF07000002FCFFFF75
:103950001E040000E2FBFFFF3E0400000B0330B535
:10396000134C1A0B4B00051C5B0DC90F0020A34222
:1039700010DD104883420EDC80200F4C40030243D0
:10398000E41A1F2C0ADD0D48C31ADA40131C484202
:103990004340581830BD0A4BC818FBE7281CE040CC
:1039A000084CA44663449A40131C0343EFE7C04607
:1039B000FE0300001D040000330400001304000097
:1039C000FFFFFF7FEDFBFFFF10B5041E10D0FFF7D8
:1039D0008DFC144A121A0A281ADC0B23211C1B1A0C
:1039E000D94015300B03520584401B0B520D01E0EA
:1039F0000022002300211B03201C1C0B0B0D1B05A8
:103A00002343094C1205234013435B00590810BDA2
:103A1000031C0B3B9C40520523031B0B520D00243F
:103A2000E8E7C0461E040000FFFF0F80F0B54446E3
:103A30005F4656464D46F0B41C1C85B0002900DA9E
:103A4000A9E00F1C0021061C8846101C191C002C24
:103A500000DA97E0341C3D1C82468946B94273D88F
:103A600070D04946504600F085F98346391C301C19
:103A700000F080F95B46181A031C8346203B9C46E5
:103A800000D59CE00023002251460092019363463A
:103A90009940019151468140019B0091BB4200D960
:103AA00083E000D17EE0009A019B341C3D1CA41AE7
:103AB0009D416346002B00DA9AE00026002702961B
:103AC000039701369E400396012686400296002801
:103AD00000D171E00099019AD30799464B464E08F0
:103AE0001E435708002301220CE0AF4201D1A64239
:103AF0000AD8A41BBD4124196D410138A4185D41A9
:103B0000002806D0AF42F0D9013824196D410028B1
:103B1000F8D12022029E039F5B46524236196F4124
:103B200099185AD4281CC8402C1C5B46DC4000293C
:103B300068DB041C8C40231C59468840021CB61AC2
:103B40009F4103E0B0428CD90026002741464B1E1E
:103B50009941002300910193009A019B0025544252
:103B60009D41331C6340181C3B1C6B40191C009B7F
:103B7000019CC018614105B03CBC90469946A246E4
:103B8000AB46F0BD4346DB430C1C9846131C00219A
:103B90005842A1415EE7002746428F410121494238
:103BA000884652E7B14200D87DE7002600270296FA
:103BB0000397002800D08DE7029E039FC6E72021CF
:103BC0005346091ACB400022191C0023009201938E
:103BD0004B4683400B4301935CE75A4620239B1AD4
:103BE0002A1C9A40201C131C5A46D04018439BE7BD
:103BF00020260027331A0026029603970127DF406C
:103C0000039761E75B4620215D46C91A031CAC405F
:103C1000CB40191C231C0B438EE7C046F0B545462C
:103C20004E465746E0B4041C82B00D1C914698469F
:103C30008B4262D85FD04146484600F09BF8291C71
:103C4000061C201C00F096F82023311A5B428A469D
:103C5000C81865D44B4683401F1C4B468B401E1C26
:103C6000AF4258D855D0A41BBD41002800DA77E0F8
:103C7000002200230092019301328240019201232D
:103C80008B40009300293CD0FB07984640467208C1
:103C90007B080243012600270CE0AB4201D1A2427F
:103CA0000AD8A41A9D4124196D410139A4197D41F6
:103CB000002906D0AB42F0D9013924196D41002901
:103CC000F8D12022009801995346524200196941C7
:103CD0009E183AD42F1CF7405346DD40002E29DBB6
:103CE0003C1CB440231C5446A7403A1C801A9941FE
:103CF0000090019105E082429DD9002300240093A9
:103D000001940098019902B01CBC90469946A246C5
:103D1000F0BDA342A7D90022002300920193B1E78E
:103D200020224B46521AD3401A1C43468B401F1C7C
:103D3000174392E7534620245646E41A3B1CB540ED
:103D4000E3401C1C2B1C2343CDE7524620239B1A27
:103D50002A1C9A40271C131C5246D7401F43BBE71E
:103D600020230022581A0023009201930132C240FE
:103D7000019284E710B5002903D1FFF7B7FA20308C
:103D800002E0081CFFF7B2FA10BDC046084B10B5A0
:103D9000041C002B02D0002100E000BF054B186876
:103DA000836A002B00D09847201C00F065FCC046B9
:103DB00000000000BC5500000E4B70B500251E1C15
:103DC0000D4CE41AA410A54204D0AB00F358984758
:103DD0000135F8E700F052FC084B00251E1C084C8A
:103DE000E41AA410A54204D0AB00F358984701355B
:103DF000F8E770BD880000208800002088000020BF
:103E00008C000020002310B5934203D0CC5CC45436
:103E10000133F9E710BD031C8218934202D01970D8
:103E20000133FAE7704700000CB430B5174B9DB072
:103E30001D68002904DA8B2301202B6040421FE01B
:103E4000822302AA9B009381002302901061994271
:103E500000D04B1E9360536101235B42D3810C1C45
:103E600021AB111C281C209A019300F079F8431C07
:103E700001DA8B232B60002C02D00023029A1370EE
:103E80001DB030BC08BC02B01847C04684000020FA
:103E90000023C25C0133002AFBD1581E704700008A
:103EA000F0B58E6885B0071C0C1C03920193B342D9
:103EB00045D390238A89DB001A423DD00325096946
:103EC000236801985B1A029363695D43EB0F5D19E8
:103ED000029B6D1001331B189D4200D21D1C381C23
:103EE00053050FD5291C00F01DFB061E13D0029AA6
:103EF0002169FFF787FFA289184B134080221343E3
:103F0000A38111E02A1C00F065FB061E0CD1381CB1
:103F1000216900F0C1FA0C23402201203B60A389F3
:103F200040421343A38117E0029B2661F6182660E6
:103F30006561019EED1AA560019BB34200D2019E0E
:103F4000321C2068039900F092FA0020A3689B1BA2
:103F5000A36023689E19266005B0F0BD7FFBFFFFBC
:103F6000F0B59FB0029005938B890E1C171C1B06A1
:103F700010D50B69002B0DD1402100F0D3FA306031
:103F80003061002804D10C23029A01381360D0E07C
:103F900040237361002306AD6B6120336B761033D1
:103FA000AB763C1C2378002B03D1E31B049312D087
:103FB00003E0252BF9D00134F4E7049B0298311C6F
:103FC0003A1CFFF76DFF431C00D1ACE06A69049B0B
:103FD000944663446B612378002B00D1A3E0012257
:103FE000002352426A6002A95432521801342B60F5
:103FF000EB60AB601370AB654F4F2178381C052226
:1040000000F02AFA002808D0C01B01278740381C7E
:104010002B68013418432860EEE72B68DA0604D5D4
:104020005322202102A8121811701A0704D5532216
:104030002B2102A81218117022782A2A01D0099B7C
:104040000EE0059A111D12680591002A01DB099204
:1040500004E05242EA60022213432B60013409E07B
:104060002278303A092A04D80A214B4301349B189C
:10407000F6E7099323782E2B18D163782A2B09D1E0
:10408000059B02341A1D1B680592002B0DDA0123D3
:104090005B420AE0002301342278303A092A04D82E
:1040A0000A214B4301349B18F6E70793234F2178ED
:1040B000381C032200F0D0F9002807D0C01B40278D
:1040C0008740381C2B6801341843286021781C482D
:1040D0000622671C297600F0BFF9002812D0194B80
:1040E000002B06D10722059B073393430833059322
:1040F00014E005AB00930298291C321C124B00E01F
:1041000000BF07E005AB00930298291C321C0E4B40
:1041100000F08AF80390039B013304D06B69039A83
:104120009B186B613DE7B3890B985B0601D50120B5
:1041300040421FB0F0BDC046C0550000C65500004B
:10414000CA55000000000000A13E0000F7B5171C92
:1041500001930A698B6800900C1C934200DA131CCF
:10416000221C3B6043321278002A01D001333B60AD
:1041700023689B0602D53B6802333B600625236813
:104180001D401ED0231C43331B785A1E93412268C6
:1041900092061CD53020E1184031C870211C5A1CF1
:1041A00045310978A21840320233D1700FE0221C49
:1041B0000123009801991932089EB047431C0ED084
:1041C0000135E3683A689B1A9D42F0DBDAE7221C6E
:1041D000009801994332089DA847431C02D1012051
:1041E000404220E006232068E1683A680340002549
:1041F000042B03D18D1AEB43DB171D40A368226902
:10420000934201DD9B1AED180027AF420ADA221C07
:104210000123009801991A32089EB047431CDED052
:104220000137F2E70020FEBDF0B58BB006920A1C04
:1042300043320793059004920A7E0C1C109B6E2A51
:1042400000D1A8E011D8632A22D009D8002A00D1D1
:10425000B2E0582A00D0C2E045310A707C4A4FE0F3
:10426000642A1DD0692A1BD0B9E0732A00D1A7E0C7
:1042700009D86F2A29D0702A00D0B0E0202209681E
:104280000A43226037E0752A1FD0782A33D0A6E08F
:104290000E1C1A684236111D196013683370A1E0B4
:1042A00021681A68080606D4490604D5111D19604C
:1042B0000023D55E02E0111D19601568002D3BDA60
:1042C0002D23049A6D42137036E021681A6808069F
:1042D00006D4490604D51568111D1960ADB202E077
:1042E000111D196015685A4B227E03930A276F2A05
:1042F0001DD108271BE0221C782145321170554A38
:1043000019680392081D226818600D68100602D40F
:10431000500600D5ADB2D30702D520231A43226040
:104320001027002D03D1202322689A432260231CEA
:10433000002243331A7002E00A27454B0393636857
:10434000A360002B03DB0422216891432160002D30
:1043500002D1049E002B0ED0049E281C391CFEF7AF
:10436000C9FE039B013E5B5C281C3370391CFEF7C1
:104370003BFE051EF1D1082F09D12368DB0706D5C6
:1043800063682269934202DC3023013E3370049B50
:104390009B1B23612BE009681A68080607D44906AD
:1043A00005D5111D19601368A28A1A8004E0111D39
:1043B0001960136862691A600023049E236116E085
:1043C0001A68111D196016680021301C626800F01F
:1043D00043F8002801D0801B6060636803E0261C5E
:1043E00042363270012323610023049A1370079B25
:1043F00005980093211C069B09AAFFF7A7FE431C02
:1044000002D10120404221E0236905980699321C1F
:10441000079DA847431CF4D023689B0705D4099B3C
:10442000E068984212DA181C10E00025E368099A47
:104430009B1A9D42F3DA221C012305980699193232
:10444000079EB047431CDCD00135EFE70BB0F0BD51
:10445000D1550000E2550000C9B28218904204D044
:1044600003788B4202D00130F8E70020704710B586
:10447000814208D28B18984205D29B1A013A09D37F
:10448000995C8154FAE70023934203D0CC5CC45476
:104490000133F9E710BD000030B500293ED00439E2
:1044A0000B68002B00DAC9181D4A1368141C002B76
:1044B00002D14B60116031E099420DD208680A18B0
:1044C0009A4203D11368C3180B6053684B60216094
:1044D00024E08A4203D8131C5A68002AF9D11D68C7
:1044E0005C198C420BD10968691858181960904200
:1044F00014D110685268091819605A600EE08C4295
:1045000002D90C23036009E008680C18944203D117
:1045100014685268001908604A60596030BDC0468E
:10452000240A0020032370B5CC1C9C430834051CCE
:104530000C2C01D20C2405E0002C03DA0C23002003
:104540002B6042E08C42F9D3204A1368101C191CDE
:10455000002913D00A68121B0DD40B2A02D90A6055
:104560008B181FE08B4202D15A6802601BE04A6838
:104570005A600B1C17E00B1C4968E9E7144E3368BE
:10458000002B03D1281C00F04BF83060281C211CA4
:1045900000F046F8031C421CD0D00322C61C9643F0
:1045A00086420AD11C60181C07210B301A1D884353
:1045B000821A0AD05142995007E0311A281C00F0A3
:1045C0002FF8431CBAD0331CECE770BD240A00203E
:1045D000200A0020F8B5061C0C1C151C002904D16B
:1045E000111CFFF79FFF041C18E0002A03D1FFF7FE
:1045F00053FF2C1C12E000F025F8A8420ED2301C0C
:10460000291CFFF78FFF071E07D0211C2A1CFFF76C
:10461000F9FB301C211CFFF73FFF3C1C201CF8BDA0
:1046200038B50023064C051C081C236000F016F862
:10463000431C03D12368002B00D02B6038BDC0463B
:10464000400A00200B1F1A68101F002A04DA89187C
:1046500004390B68D018043870470000044A136806
:10466000002B03D018181060181C7047014BF9E795
:10467000280A0020480A0020FEE7C046F8B5C046D8
:10468000F8BC08BC9E467047F8B5C046F8BC08BCEC
:104690009E4670473000256C64002D00000000002D
:1046A000000000000000000000000000000000000A
:1046B00000000000000000000000000000000000FA
:1046C00000000000000000000000000000000000EA
:1046D00000000000000000000000000000000000DA
:1046E00000000000000000000000000000000000CA
:1046F00000000000000000000000000000000000BA
:1047000000000000000000000000000000000000A9
:104710000000000000000000000000000000000099
:104720000000000000000000000000000000000089
:104730000000000000000000000000000000000079
:104740000000000000000000000000000000000069
:104750000000000000000000000000000000000059
:104760000000000000000000000000000000000049
:104770000000000000000000000000000000000039
:104780000000000000000000000000000000000029
:104790000000000000000000000000000000000019
:1047A0000000000000000000000000000000000009
:1047B00000000000000000000000000000000000F9
:1047C00000000000000000000000000000000000E9
:1047D0000000008000000000000000000000000059
:1047E000000010F0030000000000000000000000C6
:1047F0000000FC380F00F818000000000000000066
:104800000000CE0D1C3EF83D00000000000000003E
:1048100000000207F07F08670000000000000000B1
:1048200000080302E0C00FC2070000000000000003
:10483000007F010000C007C00F0000000000000062
:1048400080F3010000C0000008000000000000002C
:10485000C08001000080000008000000000000008F
:10486000400000000080010008000000000000007F
:1048700060000000008000000C000000000000004C
:104880002000000000C000000C000000000000003C
:104890003C00000000400000180000000000000084
:1048A0003F00000000C00000180000000000008071
:1048B0001100000000C0030008000000000000809C
:1048C0000000000000800F000E000000000000C08B
:1048D0000000000000008F8307000000000000C0FF
:1048E000000000000080FFDF070000000000004023
:1048F0000000000000F0677C07000000000000409E
:104900000000000000FC03003F0000000000004029
:104910000000000000FE0300FE0000000000004058
:104920000000000000FF3360FE01000000000040B6
:104930000000000000FF7170FE0100000000004058
:1049400000000000807F7178FE030000000000E09E
:104950000000000000BF79F0FE03000000000030FE
:1049600000000000009F7970FC03000000000010B0
:104970000000000000867170F403000000000018C1
:104980000000000000807070E401000000000018CA
:1049900000000000008000000C0000000000001873
:1049A000000000000080000004000000000000087B
:1049B00000000000008000000C0000000000000863
:1049C00000000000008000000C0000000000000853
:1049D0000000000000C000000800000000000018F7
:1049E0000000000000C000000800000000000008F7
:1049F0000000000000400000080000000000001857
:104A000000000000004000000C0000000000001842
:104A10000000000000C00000080000000000001EB0
:104A20000000000000C00000080000000000003E80
:104A30000000000000400000080000000000001F0F
:104A40000000000000400000080000000000801F7F
:104A50000000000000C000000C0000000000801FEB
:104A60000000000000C00000080000000000C00FAF
:104A700000000000008000000C0000000000C00FDB
:104A800000000000008000000C0000000000C00FCB
:104A90000000000000800000040000000000C01FB3
:104AA0000000000000800110040000000000C01F92
:104AB000000000000000611C0600000000008013E0
:104AC000000000000000E10F020000000000803341
:104AD00000000000000083030300000000000061EC
:104AE000000000000000060101000000000000C0FE
:104AF00000000000000006830100000000000080AC
:104B00000100000000001CE3000000000000008025
:104B10000000000000007879000000000000008024
:104B2000000000000000E01F000000000000008006
:104B3000000000000000000D0000000000000080E8
:104B400000000000000000080000000000000080DD
:104B5000010000000000000C0000000000000080C8
:104B60000100000000000004000000000000000040
:104B7000030000000000000600000000000000002C
:104B80000600000000000006000000000000000019
:104B90001E00000000008003000000000000000074
:104BA000180000000000C00100000000000000002C
:104BB000100000000000C000000000000000000025
:104BC0003000000000006000000000000000000055
:104BD0003000000000002000000000000000000085
:104BE0002030000000002000000000000000000055
:104BF000603C0000002030000000000000000000C9
:104C0000C02F00000060180000000000000000003D
:104C10008067000000F01F0000000000000000009E
:104C200000C2000000D807000000000000000000E3
:104C300000C601000CCC00000000000000000000D5
:104C40000062C3001E4700000000000000000000DA
:104C50000062FF01FE4700000000000000000000AD
:104C60000022BB83CF4500000000000000000000D0
:104C7000002211E68866000000000000000000002D
:104C800000331B7ECC260000000000000000000066
:104C900000221100C86400000000000000000000B5
:104CA000002211004C240000000000000000000061
:104CB00000221B00C8660000000000000000000089
:104CC00000B2110088660000000000000000000033
:104CD00000231300C86C000000000000000000006A
:104CE00000223F00C8FE000000000000000000009D
:104CF000007F3F00FCFE00000000000000000000FC
:104D000000FE3F00F8FD0000000000000000000071
:104D1000007F3F00FCFF00000000000000000000DA
:104D2000007F3F00F87D0000000000000000000050
:104D3000007E1F00F8790000000000000000000065
:104D4000007E0400F80100000000000000000000E8
:104D5000007E0000F80000000000000000000000DD
:104D6000000400003000000000000000000000000F
:104D70000000000000000000000000000000000033
:104D80000000000000000000000000000000000023
:104D90000000000000000000000000000000000013
:104DA0000000000000000000000000000000000003
:104DB00000000000000000000000000000000000F3
:104DC00000000000000000000000000000000000E3
:104DD00000000000000000000000000000000000D3
:104DE00000000000000000000000000000000000C3
:104DF00000000000000000000000000000000000B3
:104E000000000000000000000000000000000000A2
:104E10000000000000000000000000000000000092
:104E20000000000000000000000000000000000082
:104E30000000000000000000000000000000000072
:104E40000000000000000000000000000000000062
:104E50000000000000000000000000000000000052
:104E60000000000000000000000000000000000042
:104E70000000000000000000000000000000000032
:104E80000000000000000000000000000000000022
:104E900000000000000000000000000000A0004032
:104EA000030703060100000000000000486B01003A
:104EB00000000000050000000000000040420F005C
:104EC00005010000000000000000000008091108B2
:104ED000E04E00002003016406080200010000000B
:104EE00000040A0A0403060608020000000000008D
:104EF0000E040E1F081F0C1F0E0E00001000010EE6
:104F00000E0E0F0E071F1F0E110E1C110111110E98
:104F10000F0E0F1E1F11111111111F0E000E040094
:104F20000200010010000C0001040801060000004E
:104F300000000000020000000000000C0406000059
:104F40000000000000040A0A1E13090404040404FB
:104F500000000000110611080C01021011110606D4
:104F600008000211101111110901011111040809A1
:104F7000011B111111111101041111111111100254
:104F800000080A00040001001000121E01000001C8
:104F90000400000000000000020000000000000209
:104FA000040802000000000000040A1F01080502B6
:104FB0000208150400000010190410040A0F01086B
:104FC00011110606041F0410101111011101010135
:104FD000110408050115131111111101041111110A
:104FE0000A11080201081100080E0D0E160E02111A
:104FF0000D060C09040B0D0E0F160D0E07111111E5
:1050000011111F0204081500000000000004000A2E
:105010000E04020002080E1F001F000815040808F5
:1050200009100F040E1E00000200080816110F01DF
:10503000110F0F1D1F040803011515110F110F0E7D
:1050400004111115040A04020208000000101301E3
:10505000191107111304080504151311111913016F
:10506000021111110A1108010410080000000000CB
:105070000000001F100215000208150406000004BD
:10508000130404101F10110211100606041F04045B
:10509000151F110111010111110408050111191148
:1050A00001150510041111150A040202040800007C
:1050B000001E1101111F021E110408030415111115
:1050C0000F1E010E02111115041E04020408000037
:1050D000000000000000000A0F1909000404040485
:1050E000040006021104021108111102110806043D
:1050F000080002001511111109010111110409091B
:10510000011111110109091004110A1511040102FC
:105110000808000000111111110102101104090505
:10512000041111110110011012190A150A100202BE
:1051300004080000000000000004000A0418160023
:1051400008020000020006010E0E1F0E080E0E02DD
:105150000E060002100001040E110F0E071F010EB3
:10516000110E06111F11110E0116110F040E040A63
:1051700011041F0E100E001F001E0F0E1E0E020E39
:10518000110E06090E11110E0110010F0C16040A62
:10519000110E1F0C040600000000000000000000BB
:1051A00000000000000000000000000000000000FF
:1051B00000000000000000000000000000000000EF
:1051C00000000000000000000000000000000000DF
:1051D00000000000000000000000000000000000CF
:1051E00000000000000000000000000000000000BF
:1051F00000000000000000000000000000000000AF
:1052000010520000200301640808020001000000A1
:1052100000186C6C10CE3808600C00000000000014
:105220007C307C7CC6FE7CFE7C7C000070001C7C9C
:105230007C7C7E7C7EFEFE7CC63C78C606C6C67C38
:105240007E7C7E7C7EC6C6C6C6C6FE7C007C100008
:105250000C00060060003800060000060C0000008C
:1052600000000000000000000000003018188C0052
:105270000000000000186CFEFC6A2C1830186C1836
:10528000000000C0C638C6C6C606C6C0C6C61818C6
:10529000387C38C6C6C6C6C6C60606C6C618306638
:1052A00006EECEC6C6C6C6C618C6C6C6C6C6C00C9C
:1052B000066038000C00060060000C00061830067E
:1052C0000C000000000000001800000000000018A2
:1052D0001830D60000000000001848FE162E2C18CA
:1052E0001830381800000060C63060C0C60606607E
:1052F000C6C618181C7C70C6F6C6C606C6060606C4
:10530000C618303606FEDEC6C6C6C60618C6C6C6EF
:105310006CC6600C0C606C00043C3E3C7C3C3C3C2D
:105320003E0000660C6E3E3C3E3C363C186666C64F
:1053300066667E1818306200000000000018006CDD
:105340007C10DC001830FE7E1C7E0030C6303070D1
:10535000FE7E7E307CFC00000E00E070F6FE7E06D5
:10536000C61E1EF6FE18301E06D6F6C67EC67E7C0B
:1053700018C6C6D638FC300C1860C6000060660639
:1053800066660C66661830360CD6666666666E060D
:105390007C6666C63C66300C0060000000000000C1
:1053A000000000FED0E866001830387E1C7E1C1815
:1053B000C63018C0C0C0C618C6C018181C7C7030D3
:1053C00076C6C606C60606C6C618303606C6E6C681
:1053D00006B6C6C018C6C6FE6CC0180C3060000009
:1053E000007C6606667E0C7C6618301E0CD66666EF
:1053F0003E56063C186666D6187C18181830000011
:1054000000000000001800FE7EAC660030186C182A
:1054100018001C0CC6300CC6C0C6C60CC6C6181870
:10542000387C380006C6C6C6C60606C6C618366626
:1054300006C6C6C60666C6C618C66CEEC6C00C0C46
:10544000606000FE0066660666060C60661836360A
:105450000CC666660626066018663CD63C600C18CC
:1054600018300000000000000018006C10E6DC009E
:10547000600C00180C001C067C78FE7CC07C7C064E
:105480007C7C000C70001C307CC67E7C7EFE06FCA2
:10549000C63C1CC6FEC6C67C06DCC67C187C38C66C
:1054A000C67EFE7CC07C00FE007C3E3C7C3C0C3E0C
:1054B00066701C6638C6663C065C063E707C18FC4E
:1054C000663E7E301818000000000000000000005A
:1054D00000000000000000000000000000000000CC
:1054E00000000000000000000000000000000000BC
:1054F00000000000000000000000000000000000AC
:10550000000000000000000000000000000000009B
:10551000000000000000000000000000000000008B
:10552000000000000000000000000000000000007B
:105530005368617270204C533031334237444830E5
:1055400033202331000000000500000000000000AF
:1055500040420F00050100000000000000000000B4
:10556000010000010001000005000000040000002F
:10557000050000000500000014360000F2350000B0
:10558000F2350000E6350000DA340000DA340000BD
:10559000DA350000E6350000DA340000DA350000C4
:1055A000DA340000E6350000DE340000DE340000AE
:1055B000DE340000F4370000430000002400002027
:1055C000232D302B2000686C4C00656667454647EC
:1055D000003031323334353637383941424344456F
:1055E00046003031323334353637383961626364DE
:0855F0006566000000000000E8
:0855F800FCAAFF7F0100000086
:1056000001010000006CDC02252400000000000005
:1056100075010020001000000080000000366E01BF
:10562000809FD50000000000000000000000000086
:10563000000000000000000000000000000000006A
:1056400000000000B855000000000000000000004D
:10565000000000000000000000000000000000004A
:10566000000000000000000000000000000000003A
:10567000000000000000000000000000000000002A
:105680000000000024000020BD0000009500000084
:045690000000000016
:0400000300002E0DBE
:00000001FF
